S12300008028030BCC15630BCE15CC3BCB380C00AC150311AD150F306E280E306E280F3C53
S1230020820B8115A4190A0B241203305F28A41DDB21FA202E333428000B291203312A2877
S1230040020B281203312A28BF0B271203312A28200B261203343828A6190335A71903355D
S1230060A8190335A9193828A61DA71DA81DA91D2E334128000B32170331412864225F228D
S12300802E3F863153282E345428B11DB21D64222E3DAE3D2E3EAE3E2E3FAE38B41DAA1D23
S12300A0AB1D2E3854282E3C86355E282E375E28FF0B331203345F28B3195F28B31D2E336B
S12300C068283116321203306E283116B2156E283216311203306E283116B2154B307B2814
S12300E0CB307B284B3CCE20A519030B251203307B28A51DAC222D118315AC112C110D00A3
S1230100A7226B22C80BB3152E339628000B291203319428020B281203319428BF0B27125B
S123012003319428200B261203349A28C80B3312033084288E3F0E3CCB3CCC3F083CFF0B01
S12301408D15FF0B8B15FF0BC6150D3CF90B8D1E8F3C8E38090B89170B0000000000891D7C
S12301608E3C8F3CA7226B228635BB28060BB115060BB215BD28B11DB21D0A0B9415000BF8
S12301809515000B9615000B7B222F3886358428010B321203309A2884280C002F34D1282C
S12301A0F9285F222316A215040B22120334F928000B8A15DF0B221F03348A198215E328BD
S12301C0E928EF28F5282E31E6285A22010BA315F928AE31EC285522020BA315F9282E3258
S12301E0F2285022030BA315F928AE32F8284B22A31D0C00B519320B35120330C529B51D0A
S12302002E308D29AE303E29030B321203340A29AE3CC529030B321203301629000B3417D3
S1230220033116292E39010BB415C529040B3212033022293416010803312229AE39020B86
S1230240B415C529050B321203302E293416020803312E292E3A030BB415C529060B3212A4
S123026003303A293416030803313A29AE3A040BB415C529AE3C320BB515C5293216A1156D
S1230280070B211203347D29010B8A154B0B211F03348A19821573297329732968295D299B
S12302A052295229A11DAE36A119211CA11521130330AE3E0334AE3A7D29A11D2E36A11901
S12302C0211CA115211303302E3E03342E3A7D29A11DAE35A119211CA11521130330AE3D6F
S12302E00334AE397D29A11D2E35A119211CA115211303302E3D03342E39030B3212033073
S123030082292E39040B321203308729AE39050B32120330C5292E3AC5292E33C129050B84
S1230320321203309829AE3A2E3AAE392E39C529040B32120330A129AE3E2E3AAE392E3903
S1230340C529030B32120330AA29AE3E2E3EAE392E39C529020B32120330B329AE3E2E3E07
S1230360AE3D2E39C529AE3E2E3EAE3DA11D2E35A119211CA115211303302E3D03342E39B8
S1230380C5292E3DAE3D2E3EAE3E2E30DA29AE34DA29060B32120330DA298C0B2B120331E4
S12303A0D329A00B2A120334D929AA190335AB19DA29AE3A0C002E30E529B71DB81DB91D7C
S12303C0BA1DBB1DBC1DBD1D4A2A5F220D3C4638A01D0634A019201601080331F129BD1DE4
S12303E0F829010BBD15A61DA71DA81DA91DB31D3A163D100331FD29012AB91D3D16BA15FE
S12304004A2A030B39120334072AB9194A2A3D16371003310C2A2F2A000B3D170331122A31
S1230420BB1D142AB81DBC193C1602080331482AA01D2E37A019201CA015201303302E3F57
S123044003342E3B2E33282A6822320BB5152D2A64222E3DAE3D2E3EAE3EBC1D482A000BD3
S12304603D170331432A000B3C170335482A1E0B3B1203303D2ABC1D482AFF0B3B12033492
S1230480482ABB19482AFF0B38120334482AB8193D16B7150C00063C463C0639463D0C0015
S12304A0063D463D0638463C0C00863CC63C0638463C0C00063C463C8638C63C0C00070B74
S12304C08D17070BC6170C000D3A0B3A463A0C00463E063E0C000D3C4638463AC63AC63947
S12304E0D3230120010B9415000B9515000B9615000B7B220C009B1516169A1515169915A9
S123050014169815181619171A171B170335A62A130B9C15020B9D151C169E151D169F15DD
S1230520FF0B9C1F03309D1B1E161F1703359A2A00008C2AFF0B981FFF0B0330991FFF0B2B
S123054003309A1FFF0B03309B1F822A0C008E3F67235F238E3B0C000838361697150F0BFC
S1230560171203341B2B020B8A15BA0B171F03348A198215C92AFA2AD02AFF2AD72A042B4F
S1230580DE2A092BE52A0E2BEC2A132BF32A182BC92AE10B881E1E0B8817010BB6151B2BB5
S12305A0E10B881E1C0B8817030BB6151B2BE10B881E1A0B8817050BB6151B2BE10B881EB7
S12305C0180B8817070BB6151B2BE10B881E160B8817090BB6151B2BE10B881E140B88176B
S12305E00B0BB6151B2BE10B881E120B88170D0BB6151B2B020BB615060BB0151B2B040B56
S1230600B615050BB0151B2B060BB615040BB0151B2B080BB615030BB0151B2B0A0BB61523
S1230620020BB0151B2B0C0BB615010BB0151B2B0E0BB615B01D361602080331202B3D2BB7
S1230640361604080331252B3D2B3616060803312A2B3D2B3616080803312F2B3D2B361669
S12306600A080331342B3D2B36160C080331392B3D2B36160E0803315E2B88324E2B301671
S1230680311203305E2B000B301703354C2B31169715171BB1155E2BB11D5E2B3016311202
S12306A003345E2B301606080331572B5C2B311697151719B1155E2B060BB1150C00861DED
S12306C0C61DFF0B8D15FF0B8B158C1D0C003F0B84152F0BBF15841B801DBF1A6B2BBF1DB0
S12306E00C00100A000ADF0A030A300A000A010A000AE00A030A310A000A010A000AE10A3B
S1230700030A320A000A010A000AD90A030A260A000A040A000AE20A030A330A000A010AE0
S1230720000AE30A030A340A000A010A000ADD0A030A2A0A000A020A000AE40A030A350AD2
S1230740000A010A000AE50A030A360A000A010A000AE60A030A370A000A010A000AE70ACD
S1230760030A380A000A010A000AE80A030A390A000A010A000AE90A030A3A0A000A010A4D
S1230780000AEA0A030A3B0A000A010A000AEB0A030A3C0A000A010A000AEC0A030A3D0A35
S12307A0000A010A000A050BC115820B81150E380C00000A000A000A000A000A000A000A75
S11D07C0000A000A000A000A000A000A000A000A000A000A000A000A000A99
S3050000806218
S903FFFFFE
