S12300008E28030BCC15630BCE15CC3BCB380C00AD150311AE150F306F280E306F280F3C41
S1230020820B8115A6190A0B261203305F28A61DE12100212F332828750B2A120331222801
S1230040300B291203342A28A9190335AA192A28A91DAA1D2F333328000B33170331332860
S1230060682263222F3F86314C28A71DA8190A0B281203305428A81D2F345428B21DB31D0E
S123008068222F3DAF3D2F3EAF3E2F3FAF38B51DAB1DAC1D2F385428A81DA719640B271258
S12300A003305428A71D2F3C86355E282F375E28FF0B341203345F28B4195F28B41DB0222C
S12300C02F3369283216331203306F283216B3156F283316321203306F283216B3154B3049
S12300E08928CB3089284B3CD42086327928AF337D2886368928AF338928A91DAA1DA31DF7
S12301008636A3192316A41524130330AF3F0334AF3B2E118315AD112D110D00AB226F22BA
S1230120C80BB4152F339C28750B2A1203319A28300B29120334A028C80B341203309228CC
S12301408E3F0E3CCB3CCC3F083CFF0B8D15FF0B8B15FF0BC6150D3CF90B8D1E8F3C8E386A
S1230160090B89170B0000000000891D8E3C8F3CAB226F228635C128060BB215060BB315CE
S1230180C328B21DB31D640B9415000B9515000B9615000B7F22303886359228010B331274
S12301A00330A02892280C003034D728FF2863222516A215040B22120334FF28000B8A152E
S12301C0E50B221F03348A198215E928EF28F528FB282F31EC285E22010BA515FF28AF3150
S12301E0F2285922020BA515FF282F32F8285422030BA515FF28AF32FE284F22A51D0C004C
S1230200B619320B36120330CB29B61D2F309329AF304429030B331203341029AF3CCB2983
S1230220030B331203301C29000B351703311C292F39010BB515CB29040B33120330282915
S12302403516010803312829AF39020BB515CB29050B331203303429351602080331342943
S12302602F3A030BB515CB29060B3312033040293516030803314029AF3A040BB515CB29AA
S1230280AF3C320BB615CB293316A115070B211203348329010B8A15510B211F03348A192B
S12302A082157929792979296E29632958295829A11DAF36A119211CA11521130330AF3EF4
S12302C00334AF3A8329A11D2F36A119211CA115211303302F3E03342F3A8329A11DAF35BC
S12302E0A119211CA11521130330AF3D0334AF398329A11D2F35A119211CA11521130330F9
S12303002F3D03342F39030B3312033088292F39040B331203308D29AF39050B3312033082
S1230320CB292F3ACB292F33C729050B331203309E29AF3A2F3AAF392F39CB29040B3312DD
S12303400330A729AF3E2F3AAF392F39CB29030B33120330B029AF3E2F3EAF392F39CB29FF
S1230360020B33120330B929AF3E2F3EAF3D2F39CB29AF3E2F3EAF3DA11D2F35A119211C11
S1230380A115211303302F3D03342F39CB292F3DAF3D2F3EAF3E2F30E029AF34E029060B26
S12303A033120330E0298C0B2C120331D929A00B2B120334DF29AB190335AC19E029AF3AD3
S12303C00C002F30EB29B81DB91DBA1DBB1DBC1DBD1DBE1D4E2A63220D3C4638A01D0634F7
S12303E0A019201601080331F729BE1DFC29010BBE15A91DAA1DB41D3B163E100331012A72
S1230400052ABA1D3E16BB154E2A030B3A1203340B2ABA194E2A3E1638100331102A192AD8
S1230420000B3E170331162ABC1D4C2AB91DBD194C2A000B3E170331472A000B3D170335D7
S12304404C2A1E0B3C120330412A3D16010803312A2A3F2AA01D2F37A019201CA0152013C0
S123046003302F3F03342F3B2F333A2A6C22320BB6153F2A68222F3DAF3D2F3EAF3EBD1D5B
S12304804C2AFF0B3C1203344C2ABC194C2AFF0B391203344C2AB9193E16B8150C00063C4F
S12304A0463C0639463D0C00063D463D0638463C0C00863CC63C0638463C0C00063C463C02
S12304C08638C63C0C00070B8D17070BC6170C000D3A0B3A463A0C00463E063E0C000D3C66
S12304E04638463AC63AC639D7230120010B9415000B9515000B9615000B7F220C009B1558
S123050016169A151516991514169815181619171A171B170335AA2A130B9C15020B9D15F1
S12305201C169E151D169F15FF0B9C1F03309D1B1E161F1703359E2A0000902AFF0B981F56
S1230540FF0B0330991FFF0B03309A1FFF0B03309B1F862A0C008E3F6B2363238E3B0C0043
S12305600838371697150F0B171203341F2B020B8A15BE0B171F03348A198215CD2AFE2A3F
S1230580D42A032BDB2A082BE22A0D2BE92A122BF02A172BF72A1C2BCD2AE10B881E1E0BE9
S12305A08817010BB7151F2BE10B881E1C0B8817030BB7151F2BE10B881E1A0B8817050B94
S12305C0B7151F2BE10B881E180B8817070BB7151F2BE10B881E160B8817090BB7151F2B09
S12305E0E10B881E140B88170B0BB7151F2BE10B881E120B88170D0BB7151F2B020BB71526
S1230600060BB1151F2B040BB715050BB1151F2B060BB715040BB1151F2B080BB715030BD1
S1230620B1151F2B0A0BB715020BB1151F2B0C0BB715010BB1151F2B0E0BB715B11D3716A9
S123064002080331242B412B371604080331292B412B3716060803312E2B412B371608089F
S12306600331332B412B37160A080331382B412B37160C0803313D2B412B37160E08033116
S1230680622B8832522B311632120330622B000B31170335502B32169715171BB215622BC7
S12306A0B21D622B311632120334622B3116060803315B2B602B321697151719B215622B79
S12306C0060BB2150C00861DC61DFF0B8D15FF0B8B158C1D0C003F0B84152F0BBF15841B11
S12306E0801DBF1A6F2BBF1D0C00100A000AE10A030A310A000A010A000AE20A030A320A53
S1230700000A010A000AE30A030A330A000A010A000ADD0A030A290A000A020A000AE40A2B
S1230720030A340A000A010A000AE50A030A350A000A010A000ADF0A030A2B0A000A020AB0
S1230740000AE60A030A360A000A010A000AE70A030A370A000A010A000AE80A030A380A90
S1230760000A010A000AE90A030A390A000A010A000AEA0A030A3A0A000A010A000AEB0A9B
S1230780030A3B0A000A010A000AEC0A030A3C0A000A010A000AED0A030A3D0A000A010A1C
S12307A0000AEE0A030A3E0A000A010A000A050BC115820B81150E380C00000A000A000A46
S12107C0000A000A000A000A000A000A000A000A000A000A000A000A000A000A000A81
S3050000806218
S903FFFFFE
